{
  "contractName": "BlindBox",
  "abi": [
    {
      "inputs": [
        {
          "internalType": "string",
          "name": "name_",
          "type": "string"
        },
        {
          "internalType": "string",
          "name": "symbol_",
          "type": "string"
        },
        {
          "internalType": "string",
          "name": "inintBaseUrl",
          "type": "string"
        },
        {
          "internalType": "string",
          "name": "notRevealdUrl_",
          "type": "string"
        }
      ],
      "stateMutability": "nonpayable",
      "type": "constructor"
    },
    {
      "anonymous": false,
      "inputs": [
        {
          "indexed": true,
          "internalType": "address",
          "name": "owner",
          "type": "address"
        },
        {
          "indexed": true,
          "internalType": "address",
          "name": "approved",
          "type": "address"
        },
        {
          "indexed": true,
          "internalType": "uint256",
          "name": "tokenId",
          "type": "uint256"
        }
      ],
      "name": "Approval",
      "type": "event"
    },
    {
      "anonymous": false,
      "inputs": [
        {
          "indexed": true,
          "internalType": "address",
          "name": "owner",
          "type": "address"
        },
        {
          "indexed": true,
          "internalType": "address",
          "name": "operator",
          "type": "address"
        },
        {
          "indexed": false,
          "internalType": "bool",
          "name": "approved",
          "type": "bool"
        }
      ],
      "name": "ApprovalForAll",
      "type": "event"
    },
    {
      "anonymous": false,
      "inputs": [
        {
          "indexed": true,
          "internalType": "address",
          "name": "previousOwner",
          "type": "address"
        },
        {
          "indexed": true,
          "internalType": "address",
          "name": "newOwner",
          "type": "address"
        }
      ],
      "name": "OwnershipTransferred",
      "type": "event"
    },
    {
      "anonymous": false,
      "inputs": [
        {
          "indexed": true,
          "internalType": "address",
          "name": "from",
          "type": "address"
        },
        {
          "indexed": true,
          "internalType": "address",
          "name": "to",
          "type": "address"
        },
        {
          "indexed": true,
          "internalType": "uint256",
          "name": "tokenId",
          "type": "uint256"
        }
      ],
      "name": "Transfer",
      "type": "event"
    },
    {
      "inputs": [],
      "name": "MAX_SUPPLY",
      "outputs": [
        {
          "internalType": "uint256",
          "name": "",
          "type": "uint256"
        }
      ],
      "stateMutability": "view",
      "type": "function",
      "constant": true
    },
    {
      "inputs": [],
      "name": "_isActiveSale",
      "outputs": [
        {
          "internalType": "bool",
          "name": "",
          "type": "bool"
        }
      ],
      "stateMutability": "view",
      "type": "function",
      "constant": true
    },
    {
      "inputs": [],
      "name": "_revealed",
      "outputs": [
        {
          "internalType": "bool",
          "name": "",
          "type": "bool"
        }
      ],
      "stateMutability": "view",
      "type": "function",
      "constant": true
    },
    {
      "inputs": [
        {
          "internalType": "uint256",
          "name": "",
          "type": "uint256"
        }
      ],
      "name": "_tokenURIs",
      "outputs": [
        {
          "internalType": "string",
          "name": "",
          "type": "string"
        }
      ],
      "stateMutability": "view",
      "type": "function",
      "constant": true
    },
    {
      "inputs": [
        {
          "internalType": "address",
          "name": "to",
          "type": "address"
        },
        {
          "internalType": "uint256",
          "name": "tokenId",
          "type": "uint256"
        }
      ],
      "name": "approve",
      "outputs": [],
      "stateMutability": "nonpayable",
      "type": "function"
    },
    {
      "inputs": [
        {
          "internalType": "address",
          "name": "owner",
          "type": "address"
        }
      ],
      "name": "balanceOf",
      "outputs": [
        {
          "internalType": "uint256",
          "name": "",
          "type": "uint256"
        }
      ],
      "stateMutability": "view",
      "type": "function",
      "constant": true
    },
    {
      "inputs": [],
      "name": "baseExtension",
      "outputs": [
        {
          "internalType": "string",
          "name": "",
          "type": "string"
        }
      ],
      "stateMutability": "view",
      "type": "function",
      "constant": true
    },
    {
      "inputs": [
        {
          "internalType": "uint256",
          "name": "tokenId",
          "type": "uint256"
        }
      ],
      "name": "getApproved",
      "outputs": [
        {
          "internalType": "address",
          "name": "",
          "type": "address"
        }
      ],
      "stateMutability": "view",
      "type": "function",
      "constant": true
    },
    {
      "inputs": [
        {
          "internalType": "address",
          "name": "owner",
          "type": "address"
        },
        {
          "internalType": "address",
          "name": "operator",
          "type": "address"
        }
      ],
      "name": "isApprovedForAll",
      "outputs": [
        {
          "internalType": "bool",
          "name": "",
          "type": "bool"
        }
      ],
      "stateMutability": "view",
      "type": "function",
      "constant": true
    },
    {
      "inputs": [],
      "name": "maxBalance",
      "outputs": [
        {
          "internalType": "uint256",
          "name": "",
          "type": "uint256"
        }
      ],
      "stateMutability": "view",
      "type": "function",
      "constant": true
    },
    {
      "inputs": [],
      "name": "maxMint",
      "outputs": [
        {
          "internalType": "uint256",
          "name": "",
          "type": "uint256"
        }
      ],
      "stateMutability": "view",
      "type": "function",
      "constant": true
    },
    {
      "inputs": [],
      "name": "mintPrice",
      "outputs": [
        {
          "internalType": "uint256",
          "name": "",
          "type": "uint256"
        }
      ],
      "stateMutability": "view",
      "type": "function",
      "constant": true
    },
    {
      "inputs": [],
      "name": "name",
      "outputs": [
        {
          "internalType": "string",
          "name": "",
          "type": "string"
        }
      ],
      "stateMutability": "view",
      "type": "function",
      "constant": true
    },
    {
      "inputs": [],
      "name": "notRevealedURI",
      "outputs": [
        {
          "internalType": "string",
          "name": "",
          "type": "string"
        }
      ],
      "stateMutability": "view",
      "type": "function",
      "constant": true
    },
    {
      "inputs": [],
      "name": "owner",
      "outputs": [
        {
          "internalType": "address",
          "name": "",
          "type": "address"
        }
      ],
      "stateMutability": "view",
      "type": "function",
      "constant": true
    },
    {
      "inputs": [
        {
          "internalType": "uint256",
          "name": "tokenId",
          "type": "uint256"
        }
      ],
      "name": "ownerOf",
      "outputs": [
        {
          "internalType": "address",
          "name": "",
          "type": "address"
        }
      ],
      "stateMutability": "view",
      "type": "function",
      "constant": true
    },
    {
      "inputs": [],
      "name": "renounceOwnership",
      "outputs": [],
      "stateMutability": "nonpayable",
      "type": "function"
    },
    {
      "inputs": [
        {
          "internalType": "address",
          "name": "from",
          "type": "address"
        },
        {
          "internalType": "address",
          "name": "to",
          "type": "address"
        },
        {
          "internalType": "uint256",
          "name": "tokenId",
          "type": "uint256"
        }
      ],
      "name": "safeTransferFrom",
      "outputs": [],
      "stateMutability": "nonpayable",
      "type": "function"
    },
    {
      "inputs": [
        {
          "internalType": "address",
          "name": "from",
          "type": "address"
        },
        {
          "internalType": "address",
          "name": "to",
          "type": "address"
        },
        {
          "internalType": "uint256",
          "name": "tokenId",
          "type": "uint256"
        },
        {
          "internalType": "bytes",
          "name": "_data",
          "type": "bytes"
        }
      ],
      "name": "safeTransferFrom",
      "outputs": [],
      "stateMutability": "nonpayable",
      "type": "function"
    },
    {
      "inputs": [
        {
          "internalType": "address",
          "name": "operator",
          "type": "address"
        },
        {
          "internalType": "bool",
          "name": "approved",
          "type": "bool"
        }
      ],
      "name": "setApprovalForAll",
      "outputs": [],
      "stateMutability": "nonpayable",
      "type": "function"
    },
    {
      "inputs": [
        {
          "internalType": "bytes4",
          "name": "interfaceId",
          "type": "bytes4"
        }
      ],
      "name": "supportsInterface",
      "outputs": [
        {
          "internalType": "bool",
          "name": "",
          "type": "bool"
        }
      ],
      "stateMutability": "view",
      "type": "function",
      "constant": true
    },
    {
      "inputs": [],
      "name": "symbol",
      "outputs": [
        {
          "internalType": "string",
          "name": "",
          "type": "string"
        }
      ],
      "stateMutability": "view",
      "type": "function",
      "constant": true
    },
    {
      "inputs": [
        {
          "internalType": "uint256",
          "name": "index",
          "type": "uint256"
        }
      ],
      "name": "tokenByIndex",
      "outputs": [
        {
          "internalType": "uint256",
          "name": "",
          "type": "uint256"
        }
      ],
      "stateMutability": "view",
      "type": "function",
      "constant": true
    },
    {
      "inputs": [
        {
          "internalType": "address",
          "name": "owner",
          "type": "address"
        },
        {
          "internalType": "uint256",
          "name": "index",
          "type": "uint256"
        }
      ],
      "name": "tokenOfOwnerByIndex",
      "outputs": [
        {
          "internalType": "uint256",
          "name": "",
          "type": "uint256"
        }
      ],
      "stateMutability": "view",
      "type": "function",
      "constant": true
    },
    {
      "inputs": [],
      "name": "totalSupply",
      "outputs": [
        {
          "internalType": "uint256",
          "name": "",
          "type": "uint256"
        }
      ],
      "stateMutability": "view",
      "type": "function",
      "constant": true
    },
    {
      "inputs": [
        {
          "internalType": "address",
          "name": "from",
          "type": "address"
        },
        {
          "internalType": "address",
          "name": "to",
          "type": "address"
        },
        {
          "internalType": "uint256",
          "name": "tokenId",
          "type": "uint256"
        }
      ],
      "name": "transferFrom",
      "outputs": [],
      "stateMutability": "nonpayable",
      "type": "function"
    },
    {
      "inputs": [
        {
          "internalType": "address",
          "name": "newOwner",
          "type": "address"
        }
      ],
      "name": "transferOwnership",
      "outputs": [],
      "stateMutability": "nonpayable",
      "type": "function"
    },
    {
      "inputs": [
        {
          "internalType": "string",
          "name": "_newURI",
          "type": "string"
        }
      ],
      "name": "setBaseURI",
      "outputs": [],
      "stateMutability": "nonpayable",
      "type": "function"
    },
    {
      "inputs": [
        {
          "internalType": "string",
          "name": "notRevealURI_",
          "type": "string"
        }
      ],
      "name": "setNotRevealURI",
      "outputs": [],
      "stateMutability": "nonpayable",
      "type": "function"
    },
    {
      "inputs": [
        {
          "internalType": "uint256",
          "name": "mintprice_",
          "type": "uint256"
        }
      ],
      "name": "setMintPrice",
      "outputs": [],
      "stateMutability": "nonpayable",
      "type": "function"
    },
    {
      "inputs": [],
      "name": "flipSaleActive",
      "outputs": [],
      "stateMutability": "nonpayable",
      "type": "function"
    },
    {
      "inputs": [],
      "name": "flipReveal",
      "outputs": [],
      "stateMutability": "nonpayable",
      "type": "function"
    },
    {
      "inputs": [
        {
          "internalType": "uint256",
          "name": "tokenId",
          "type": "uint256"
        }
      ],
      "name": "tokenURI",
      "outputs": [
        {
          "internalType": "string",
          "name": "",
          "type": "string"
        }
      ],
      "stateMutability": "view",
      "type": "function",
      "constant": true
    },
    {
      "inputs": [
        {
          "internalType": "uint256",
          "name": "tokenQuantity",
          "type": "uint256"
        }
      ],
      "name": "mintBlind",
      "outputs": [],
      "stateMutability": "payable",
      "type": "function",
      "payable": true
    },
    {
      "inputs": [
        {
          "internalType": "uint256",
          "name": "tokenId",
          "type": "uint256"
        }
      ],
      "name": "openBox",
      "outputs": [],
      "stateMutability": "nonpayable",
      "type": "function"
    },
    {
      "inputs": [
        {
          "internalType": "string",
          "name": "url",
          "type": "string"
        }
      ],
      "name": "addUrl",
      "outputs": [],
      "stateMutability": "nonpayable",
      "type": "function"
    },
    {
      "inputs": [
        {
          "internalType": "address",
          "name": "to",
          "type": "address"
        }
      ],
      "name": "withdraw",
      "outputs": [],
      "stateMutability": "nonpayable",
      "type": "function"
    }
  ],
  "bytecode": "0x60806040526000600d60006101000a81548160ff0219169083151502179055506000600d60016101000a81548160ff021916908315150217905550670429d069189e0000600e556001600f5560016010556040518060400160405280600581526020017f2e6a736f6e000000000000000000000000000000000000000000000000000000815250601390805190602001906200009d929190620003a1565b50348015620000ab57600080fd5b506040516200501f3803806200501f8339818101604052810190620000d19190620004c3565b83838160009080519060200190620000eb929190620003a1565b50806001908051906020019062000104929190620003a1565b505050620001276200011b6200015360201b60201c565b6200015b60201b60201c565b62000138826200022160201b60201c565b6200014981620002cc60201b60201c565b5050505062000786565b600033905090565b6000600a60009054906101000a900473ffffffffffffffffffffffffffffffffffffffff16905081600a60006101000a81548173ffffffffffffffffffffffffffffffffffffffff021916908373ffffffffffffffffffffffffffffffffffffffff1602179055508173ffffffffffffffffffffffffffffffffffffffff168173ffffffffffffffffffffffffffffffffffffffff167f8be0079c531659141344cd1fd0a4f28419497f9722a3daafe3b4186f6b6457e060405160405180910390a35050565b620002316200015360201b60201c565b73ffffffffffffffffffffffffffffffffffffffff16620002576200037760201b60201c565b73ffffffffffffffffffffffffffffffffffffffff1614620002b0576040517f08c379a0000000000000000000000000000000000000000000000000000000008152600401620002a790620005ba565b60405180910390fd5b8060119080519060200190620002c8929190620003a1565b5050565b620002dc6200015360201b60201c565b73ffffffffffffffffffffffffffffffffffffffff16620003026200037760201b60201c565b73ffffffffffffffffffffffffffffffffffffffff16146200035b576040517f08c379a00000000000000000000000000000000000000000000000000000000081526004016200035290620005ba565b60405180910390fd5b806012908051906020019062000373929190620003a1565b5050565b6000600a60009054906101000a900473ffffffffffffffffffffffffffffffffffffffff16905090565b828054620003af9062000682565b90600052602060002090601f016020900481019282620003d357600085556200041f565b82601f10620003ee57805160ff19168380011785556200041f565b828001600101855582156200041f579182015b828111156200041e57825182559160200191906001019062000401565b5b5090506200042e919062000432565b5090565b5b808211156200044d57600081600090555060010162000433565b5090565b600062000468620004628462000605565b620005dc565b9050828152602081018484840111156200048157600080fd5b6200048e8482856200064c565b509392505050565b600082601f830112620004a857600080fd5b8151620004ba84826020860162000451565b91505092915050565b60008060008060808587031215620004da57600080fd5b600085015167ffffffffffffffff811115620004f557600080fd5b620005038782880162000496565b945050602085015167ffffffffffffffff8111156200052157600080fd5b6200052f8782880162000496565b935050604085015167ffffffffffffffff8111156200054d57600080fd5b6200055b8782880162000496565b925050606085015167ffffffffffffffff8111156200057957600080fd5b620005878782880162000496565b91505092959194509250565b6000620005a26020836200063b565b9150620005af826200075d565b602082019050919050565b60006020820190508181036000830152620005d58162000593565b9050919050565b6000620005e8620005fb565b9050620005f68282620006b8565b919050565b6000604051905090565b600067ffffffffffffffff8211156200062357620006226200071d565b5b6200062e826200074c565b9050602081019050919050565b600082825260208201905092915050565b60005b838110156200066c5780820151818401526020810190506200064f565b838111156200067c576000848401525b50505050565b600060028204905060018216806200069b57607f821691505b60208210811415620006b257620006b1620006ee565b5b50919050565b620006c3826200074c565b810181811067ffffffffffffffff82111715620006e557620006e46200071d565b5b80604052505050565b7f4e487b7100000000000000000000000000000000000000000000000000000000600052602260045260246000fd5b7f4e487b7100000000000000000000000000000000000000000000000000000000600052604160045260246000fd5b6000601f19601f8301169050919050565b7f4f776e61626c653a2063616c6c6572206973206e6f7420746865206f776e6572600082015250565b61488980620007966000396000f3fe60806040526004361061021a5760003560e01c80636ebeac8511610123578063b1e5e2b7116100ab578063e985e9c51161006f578063e985e9c5146107c1578063eb55787c146107fe578063f2fde38b14610827578063f4a0a52814610850578063fee10fa0146108795761021a565b8063b1e5e2b7146106f0578063b88d4fde14610719578063c668286214610742578063c87b56dd1461076d578063de8b51e1146107aa5761021a565b806373ad468a116100f257806373ad468a1461061b5780637501f741146106465780638da5cb5b1461067157806395d89b411461069c578063a22cb465146106c75761021a565b80636ebeac851461057157806370a082311461059c578063715018a6146105d957806372250380146105f05761021a565b806332cb6b0c116101a657806351cff8d91161017557806351cff8d91461048e57806355f804b3146104b75780635accac99146104e05780636352211e146105095780636817c76c146105465761021a565b806332cb6b0c146103e65780633b84d9c61461041157806342842e0e146104285780634f6ccce7146104515761021a565b80630bb78ec1116101ed5780630bb78ec1146102ed5780631451bc281461032a57806318160ddd1461035557806323b872dd146103805780632f745c59146103a95761021a565b806301ffc9a71461021f57806306fdde031461025c578063081812fc14610287578063095ea7b3146102c4575b600080fd5b34801561022b57600080fd5b5061024660048036038101906102419190613502565b610895565b6040516102539190613acb565b60405180910390f35b34801561026857600080fd5b5061027161090f565b60405161027e9190613ae6565b60405180910390f35b34801561029357600080fd5b506102ae60048036038101906102a99190613595565b6109a1565b6040516102bb9190613a64565b60405180910390f35b3480156102d057600080fd5b506102eb60048036038101906102e691906134c6565b610a26565b005b3480156102f957600080fd5b50610314600480360381019061030f9190613595565b610b3e565b6040516103219190613ae6565b60405180910390f35b34801561033657600080fd5b5061033f610bde565b60405161034c9190613acb565b60405180910390f35b34801561036157600080fd5b5061036a610bf1565b6040516103779190613dc8565b60405180910390f35b34801561038c57600080fd5b506103a760048036038101906103a291906133c0565b610bfe565b005b3480156103b557600080fd5b506103d060048036038101906103cb91906134c6565b610c5e565b6040516103dd9190613dc8565b60405180910390f35b3480156103f257600080fd5b506103fb610d03565b6040516104089190613dc8565b60405180910390f35b34801561041d57600080fd5b50610426610d09565b005b34801561043457600080fd5b5061044f600480360381019061044a91906133c0565b610db1565b005b34801561045d57600080fd5b5061047860048036038101906104739190613595565b610dd1565b6040516104859190613dc8565b60405180910390f35b34801561049a57600080fd5b506104b560048036038101906104b0919061335b565b610e68565b005b3480156104c357600080fd5b506104de60048036038101906104d99190613554565b610f34565b005b3480156104ec57600080fd5b5061050760048036038101906105029190613554565b610fca565b005b34801561051557600080fd5b50610530600480360381019061052b9190613595565b611060565b60405161053d9190613a64565b60405180910390f35b34801561055257600080fd5b5061055b611112565b6040516105689190613dc8565b60405180910390f35b34801561057d57600080fd5b50610586611118565b6040516105939190613acb565b60405180910390f35b3480156105a857600080fd5b506105c360048036038101906105be919061335b565b61112b565b6040516105d09190613dc8565b60405180910390f35b3480156105e557600080fd5b506105ee6111e3565b005b3480156105fc57600080fd5b5061060561126b565b6040516106129190613ae6565b60405180910390f35b34801561062757600080fd5b506106306112f9565b60405161063d9190613dc8565b60405180910390f35b34801561065257600080fd5b5061065b6112ff565b6040516106689190613dc8565b60405180910390f35b34801561067d57600080fd5b50610686611305565b6040516106939190613a64565b60405180910390f35b3480156106a857600080fd5b506106b161132f565b6040516106be9190613ae6565b60405180910390f35b3480156106d357600080fd5b506106ee60048036038101906106e9919061348a565b6113c1565b005b3480156106fc57600080fd5b5061071760048036038101906107129190613595565b6113d7565b005b34801561072557600080fd5b50610740600480360381019061073b919061340f565b6114f6565b005b34801561074e57600080fd5b50610757611558565b6040516107649190613ae6565b60405180910390f35b34801561077957600080fd5b50610794600480360381019061078f9190613595565b6115e6565b6040516107a19190613ae6565b60405180910390f35b3480156107b657600080fd5b506107bf61189a565b005b3480156107cd57600080fd5b506107e860048036038101906107e39190613384565b611942565b6040516107f59190613acb565b60405180910390f35b34801561080a57600080fd5b5061082560048036038101906108209190613554565b6119d6565b005b34801561083357600080fd5b5061084e6004803603810190610849919061335b565b611a91565b005b34801561085c57600080fd5b5061087760048036038101906108729190613595565b611b89565b005b610893600480360381019061088e9190613595565b611c0f565b005b60007f780e9d63000000000000000000000000000000000000000000000000000000007bffffffffffffffffffffffffffffffffffffffffffffffffffffffff1916827bffffffffffffffffffffffffffffffffffffffffffffffffffffffff19161480610908575061090782611d78565b5b9050919050565b60606000805461091e9061408d565b80601f016020809104026020016040519081016040528092919081815260200182805461094a9061408d565b80156109975780601f1061096c57610100808354040283529160200191610997565b820191906000526020600020905b81548152906001019060200180831161097a57829003601f168201915b5050505050905090565b60006109ac82611e5a565b6109eb576040517f08c379a00000000000000000000000000000000000000000000000000000000081526004016109e290613ce8565b60405180910390fd5b6004600083815260200190815260200160002060009054906101000a900473ffffffffffffffffffffffffffffffffffffffff169050919050565b6000610a3182611060565b90508073ffffffffffffffffffffffffffffffffffffffff168373ffffffffffffffffffffffffffffffffffffffff161415610aa2576040517f08c379a0000000000000000000000000000000000000000000000000000000008152600401610a9990613d48565b60405180910390fd5b8073ffffffffffffffffffffffffffffffffffffffff16610ac1611ec6565b73ffffffffffffffffffffffffffffffffffffffff161480610af05750610aef81610aea611ec6565b611942565b5b610b2f576040517f08c379a0000000000000000000000000000000000000000000000000000000008152600401610b2690613c68565b60405180910390fd5b610b398383611ece565b505050565b600c6020528060005260406000206000915090508054610b5d9061408d565b80601f0160208091040260200160405190810160405280929190818152602001828054610b899061408d565b8015610bd65780601f10610bab57610100808354040283529160200191610bd6565b820191906000526020600020905b815481529060010190602001808311610bb957829003601f168201915b505050505081565b600d60009054906101000a900460ff1681565b6000600880549050905090565b610c0f610c09611ec6565b82611f87565b610c4e576040517f08c379a0000000000000000000000000000000000000000000000000000000008152600401610c4590613d68565b60405180910390fd5b610c59838383612065565b505050565b6000610c698361112b565b8210610caa576040517f08c379a0000000000000000000000000000000000000000000000000000000008152600401610ca190613b08565b60405180910390fd5b600660008473ffffffffffffffffffffffffffffffffffffffff1673ffffffffffffffffffffffffffffffffffffffff168152602001908152602001600020600083815260200190815260200160002054905092915050565b6103e881565b610d11611ec6565b73ffffffffffffffffffffffffffffffffffffffff16610d2f611305565b73ffffffffffffffffffffffffffffffffffffffff1614610d85576040517f08c379a0000000000000000000000000000000000000000000000000000000008152600401610d7c90613d08565b60405180910390fd5b600d60019054906101000a900460ff1615600d60016101000a81548160ff021916908315150217905550565b610dcc838383604051806020016040528060008152506114f6565b505050565b6000610ddb610bf1565b8210610e1c576040517f08c379a0000000000000000000000000000000000000000000000000000000008152600401610e1390613d88565b60405180910390fd5b60088281548110610e56577f4e487b7100000000000000000000000000000000000000000000000000000000600052603260045260246000fd5b90600052602060002001549050919050565b610e70611ec6565b73ffffffffffffffffffffffffffffffffffffffff16610e8e611305565b73ffffffffffffffffffffffffffffffffffffffff1614610ee4576040517f08c379a0000000000000000000000000000000000000000000000000000000008152600401610edb90613d08565b60405180910390fd5b60004790508173ffffffffffffffffffffffffffffffffffffffff166108fc829081150290604051600060405180830381858888f19350505050158015610f2f573d6000803e3d6000fd5b505050565b610f3c611ec6565b73ffffffffffffffffffffffffffffffffffffffff16610f5a611305565b73ffffffffffffffffffffffffffffffffffffffff1614610fb0576040517f08c379a0000000000000000000000000000000000000000000000000000000008152600401610fa790613d08565b60405180910390fd5b8060119080519060200190610fc69291906130f2565b5050565b610fd2611ec6565b73ffffffffffffffffffffffffffffffffffffffff16610ff0611305565b73ffffffffffffffffffffffffffffffffffffffff1614611046576040517f08c379a000000000000000000000000000000000000000000000000000000000815260040161103d90613d08565b60405180910390fd5b806012908051906020019061105c9291906130f2565b5050565b6000806002600084815260200190815260200160002060009054906101000a900473ffffffffffffffffffffffffffffffffffffffff169050600073ffffffffffffffffffffffffffffffffffffffff168173ffffffffffffffffffffffffffffffffffffffff161415611109576040517f08c379a000000000000000000000000000000000000000000000000000000000815260040161110090613ca8565b60405180910390fd5b80915050919050565b600e5481565b600d60019054906101000a900460ff1681565b60008073ffffffffffffffffffffffffffffffffffffffff168273ffffffffffffffffffffffffffffffffffffffff16141561119c576040517f08c379a000000000000000000000000000000000000000000000000000000000815260040161119390613c88565b60405180910390fd5b600360008373ffffffffffffffffffffffffffffffffffffffff1673ffffffffffffffffffffffffffffffffffffffff168152602001908152602001600020549050919050565b6111eb611ec6565b73ffffffffffffffffffffffffffffffffffffffff16611209611305565b73ffffffffffffffffffffffffffffffffffffffff161461125f576040517f08c379a000000000000000000000000000000000000000000000000000000000815260040161125690613d08565b60405180910390fd5b61126960006122cc565b565b601280546112789061408d565b80601f01602080910402602001604051908101604052809291908181526020018280546112a49061408d565b80156112f15780601f106112c6576101008083540402835291602001916112f1565b820191906000526020600020905b8154815290600101906020018083116112d457829003601f168201915b505050505081565b600f5481565b60105481565b6000600a60009054906101000a900473ffffffffffffffffffffffffffffffffffffffff16905090565b60606001805461133e9061408d565b80601f016020809104026020016040519081016040528092919081815260200182805461136a9061408d565b80156113b75780601f1061138c576101008083540402835291602001916113b7565b820191906000526020600020905b81548152906001019060200180831161139a57829003601f168201915b5050505050905090565b6113d36113cc611ec6565b8383612392565b5050565b6113e081611e5a565b61141f576040517f08c379a000000000000000000000000000000000000000000000000000000000815260040161141690613d28565b60405180910390fd5b600d60019054906101000a900460ff1661146e576040517f08c379a000000000000000000000000000000000000000000000000000000000815260040161146590613be8565b60405180910390fd5b6000600b80549050826114819190614139565b9050600b81815481106114bd577f4e487b7100000000000000000000000000000000000000000000000000000000600052603260045260246000fd5b90600052602060002001600c60008481526020019081526020016000209080546114e69061408d565b6114f1929190613178565b505050565b611507611501611ec6565b83611f87565b611546576040517f08c379a000000000000000000000000000000000000000000000000000000000815260040161153d90613d68565b60405180910390fd5b611552848484846124ff565b50505050565b601380546115659061408d565b80601f01602080910402602001604051908101604052809291908181526020018280546115919061408d565b80156115de5780601f106115b3576101008083540402835291602001916115de565b820191906000526020600020905b8154815290600101906020018083116115c157829003601f168201915b505050505081565b60606115f182611e5a565b611630576040517f08c379a000000000000000000000000000000000000000000000000000000000815260040161162790613d28565b60405180910390fd5b600d60019054906101000a900460ff166116d657601280546116519061408d565b80601f016020809104026020016040519081016040528092919081815260200182805461167d9061408d565b80156116ca5780601f1061169f576101008083540402835291602001916116ca565b820191906000526020600020905b8154815290600101906020018083116116ad57829003601f168201915b50505050509050611895565b6000600c600084815260200190815260200160002080546116f69061408d565b80601f01602080910402602001604051908101604052809291908181526020018280546117229061408d565b801561176f5780601f106117445761010080835404028352916020019161176f565b820191906000526020600020905b81548152906001019060200180831161175257829003601f168201915b50505050509050600061178061255b565b905060008251141561181a57601280546117999061408d565b80601f01602080910402602001604051908101604052809291908181526020018280546117c59061408d565b80156118125780601f106117e757610100808354040283529160200191611812565b820191906000526020600020905b8154815290600101906020018083116117f557829003601f168201915b505050505091505b60008151141561182e578192505050611895565b60008251111561186357808260405160200161184b929190613a0f565b60405160208183030381529060405292505050611895565b8061186d856125ed565b601360405160200161188193929190613a33565b604051602081830303815290604052925050505b919050565b6118a2611ec6565b73ffffffffffffffffffffffffffffffffffffffff166118c0611305565b73ffffffffffffffffffffffffffffffffffffffff1614611916576040517f08c379a000000000000000000000000000000000000000000000000000000000815260040161190d90613d08565b60405180910390fd5b600d60009054906101000a900460ff1615600d60006101000a81548160ff021916908315150217905550565b6000600560008473ffffffffffffffffffffffffffffffffffffffff1673ffffffffffffffffffffffffffffffffffffffff16815260200190815260200160002060008373ffffffffffffffffffffffffffffffffffffffff1673ffffffffffffffffffffffffffffffffffffffff16815260200190815260200160002060009054906101000a900460ff16905092915050565b6119de611ec6565b73ffffffffffffffffffffffffffffffffffffffff166119fc611305565b73ffffffffffffffffffffffffffffffffffffffff1614611a52576040517f08c379a0000000000000000000000000000000000000000000000000000000008152600401611a4990613d08565b60405180910390fd5b600b81908060018154018082558091505060019003906000526020600020016000909190919091509080519060200190611a8d9291906130f2565b5050565b611a99611ec6565b73ffffffffffffffffffffffffffffffffffffffff16611ab7611305565b73ffffffffffffffffffffffffffffffffffffffff1614611b0d576040517f08c379a0000000000000000000000000000000000000000000000000000000008152600401611b0490613d08565b60405180910390fd5b600073ffffffffffffffffffffffffffffffffffffffff168173ffffffffffffffffffffffffffffffffffffffff161415611b7d576040517f08c379a0000000000000000000000000000000000000000000000000000000008152600401611b7490613b48565b60405180910390fd5b611b86816122cc565b50565b611b91611ec6565b73ffffffffffffffffffffffffffffffffffffffff16611baf611305565b73ffffffffffffffffffffffffffffffffffffffff1614611c05576040517f08c379a0000000000000000000000000000000000000000000000000000000008152600401611bfc90613d08565b60405180910390fd5b80600e8190555050565b6103e881611c1b610bf1565b611c259190613ec2565b1115611c3057600080fd5b600d60009054906101000a900460ff16611c7f576040517f08c379a0000000000000000000000000000000000000000000000000000000008152600401611c7690613be8565b60405180910390fd5b600f5481611c8c3361112b565b611c969190613ec2565b1115611cd7576040517f08c379a0000000000000000000000000000000000000000000000000000000008152600401611cce90613c48565b60405180910390fd5b34600e5482611ce69190613f49565b1115611d27576040517f08c379a0000000000000000000000000000000000000000000000000000000008152600401611d1e90613da8565b60405180910390fd5b601054811115611d6c576040517f08c379a0000000000000000000000000000000000000000000000000000000008152600401611d6390613c28565b60405180910390fd5b611d758161279a565b50565b60007f80ac58cd000000000000000000000000000000000000000000000000000000007bffffffffffffffffffffffffffffffffffffffffffffffffffffffff1916827bffffffffffffffffffffffffffffffffffffffffffffffffffffffff19161480611e4357507f5b5e139f000000000000000000000000000000000000000000000000000000007bffffffffffffffffffffffffffffffffffffffffffffffffffffffff1916827bffffffffffffffffffffffffffffffffffffffffffffffffffffffff1916145b80611e535750611e52826127e5565b5b9050919050565b60008073ffffffffffffffffffffffffffffffffffffffff166002600084815260200190815260200160002060009054906101000a900473ffffffffffffffffffffffffffffffffffffffff1673ffffffffffffffffffffffffffffffffffffffff1614159050919050565b600033905090565b816004600083815260200190815260200160002060006101000a81548173ffffffffffffffffffffffffffffffffffffffff021916908373ffffffffffffffffffffffffffffffffffffffff160217905550808273ffffffffffffffffffffffffffffffffffffffff16611f4183611060565b73ffffffffffffffffffffffffffffffffffffffff167f8c5be1e5ebec7d5bd14f71427d1e84f3dd0314c0f7b2291e5b200ac8c7c3b92560405160405180910390a45050565b6000611f9282611e5a565b611fd1576040517f08c379a0000000000000000000000000000000000000000000000000000000008152600401611fc890613c08565b60405180910390fd5b6000611fdc83611060565b90508073ffffffffffffffffffffffffffffffffffffffff168473ffffffffffffffffffffffffffffffffffffffff16148061204b57508373ffffffffffffffffffffffffffffffffffffffff16612033846109a1565b73ffffffffffffffffffffffffffffffffffffffff16145b8061205c575061205b8185611942565b5b91505092915050565b8273ffffffffffffffffffffffffffffffffffffffff1661208582611060565b73ffffffffffffffffffffffffffffffffffffffff16146120db576040517f08c379a00000000000000000000000000000000000000000000000000000000081526004016120d290613b68565b60405180910390fd5b600073ffffffffffffffffffffffffffffffffffffffff168273ffffffffffffffffffffffffffffffffffffffff16141561214b576040517f08c379a000000000000000000000000000000000000000000000000000000000815260040161214290613ba8565b60405180910390fd5b61215683838361284f565b612161600082611ece565b6001600360008573ffffffffffffffffffffffffffffffffffffffff1673ffffffffffffffffffffffffffffffffffffffff16815260200190815260200160002060008282546121b19190613fa3565b925050819055506001600360008473ffffffffffffffffffffffffffffffffffffffff1673ffffffffffffffffffffffffffffffffffffffff16815260200190815260200160002060008282546122089190613ec2565b92505081905550816002600083815260200190815260200160002060006101000a81548173ffffffffffffffffffffffffffffffffffffffff021916908373ffffffffffffffffffffffffffffffffffffffff160217905550808273ffffffffffffffffffffffffffffffffffffffff168473ffffffffffffffffffffffffffffffffffffffff167fddf252ad1be2c89b69c2b068fc378daa952ba7f163c4a11628f55a4df523b3ef60405160405180910390a46122c7838383612963565b505050565b6000600a60009054906101000a900473ffffffffffffffffffffffffffffffffffffffff16905081600a60006101000a81548173ffffffffffffffffffffffffffffffffffffffff021916908373ffffffffffffffffffffffffffffffffffffffff1602179055508173ffffffffffffffffffffffffffffffffffffffff168173ffffffffffffffffffffffffffffffffffffffff167f8be0079c531659141344cd1fd0a4f28419497f9722a3daafe3b4186f6b6457e060405160405180910390a35050565b8173ffffffffffffffffffffffffffffffffffffffff168373ffffffffffffffffffffffffffffffffffffffff161415612401576040517f08c379a00000000000000000000000000000000000000000000000000000000081526004016123f890613bc8565b60405180910390fd5b80600560008573ffffffffffffffffffffffffffffffffffffffff1673ffffffffffffffffffffffffffffffffffffffff16815260200190815260200160002060008473ffffffffffffffffffffffffffffffffffffffff1673ffffffffffffffffffffffffffffffffffffffff16815260200190815260200160002060006101000a81548160ff0219169083151502179055508173ffffffffffffffffffffffffffffffffffffffff168373ffffffffffffffffffffffffffffffffffffffff167f17307eab39ab6107e8899845ad3d59bd9653f200f220920489ca2b5937696c31836040516124f29190613acb565b60405180910390a3505050565b61250a848484612065565b61251684848484612968565b612555576040517f08c379a000000000000000000000000000000000000000000000000000000000815260040161254c90613b28565b60405180910390fd5b50505050565b60606011805461256a9061408d565b80601f01602080910402602001604051908101604052809291908181526020018280546125969061408d565b80156125e35780601f106125b8576101008083540402835291602001916125e3565b820191906000526020600020905b8154815290600101906020018083116125c657829003601f168201915b5050505050905090565b60606000821415612635576040518060400160405280600181526020017f30000000000000000000000000000000000000000000000000000000000000008152509050612795565b600082905060005b60008214612667578080612650906140f0565b915050600a826126609190613f18565b915061263d565b60008167ffffffffffffffff8111156126a9577f4e487b7100000000000000000000000000000000000000000000000000000000600052604160045260246000fd5b6040519080825280601f01601f1916602001820160405280156126db5781602001600182028036833780820191505090505b5090505b6000851461278e576001826126f49190613fa3565b9150600a856127039190614139565b603061270f9190613ec2565b60f81b81838151811061274b577f4e487b7100000000000000000000000000000000000000000000000000000000600052603260045260246000fd5b60200101907effffffffffffffffffffffffffffffffffffffffffffffffffffffffffffff1916908160001a905350600a856127879190613f18565b94506126df565b8093505050505b919050565b60005b818110156127e15760006127af610bf1565b90506103e86127bc610bf1565b10156127cd576127cc3382612aff565b5b5080806127d9906140f0565b91505061279d565b5050565b60007f01ffc9a7000000000000000000000000000000000000000000000000000000007bffffffffffffffffffffffffffffffffffffffffffffffffffffffff1916827bffffffffffffffffffffffffffffffffffffffffffffffffffffffff1916149050919050565b61285a838383612b1d565b600073ffffffffffffffffffffffffffffffffffffffff168373ffffffffffffffffffffffffffffffffffffffff16141561289d5761289881612b22565b6128dc565b8173ffffffffffffffffffffffffffffffffffffffff168373ffffffffffffffffffffffffffffffffffffffff16146128db576128da8382612b6b565b5b5b600073ffffffffffffffffffffffffffffffffffffffff168273ffffffffffffffffffffffffffffffffffffffff16141561291f5761291a81612cd8565b61295e565b8273ffffffffffffffffffffffffffffffffffffffff168273ffffffffffffffffffffffffffffffffffffffff161461295d5761295c8282612e1b565b5b5b505050565b505050565b60006129898473ffffffffffffffffffffffffffffffffffffffff16612e9a565b15612af2578373ffffffffffffffffffffffffffffffffffffffff1663150b7a026129b2611ec6565b8786866040518563ffffffff1660e01b81526004016129d49493929190613a7f565b602060405180830381600087803b1580156129ee57600080fd5b505af1925050508015612a1f57506040513d601f19601f82011682018060405250810190612a1c919061352b565b60015b612aa2573d8060008114612a4f576040519150601f19603f3d011682016040523d82523d6000602084013e612a54565b606091505b50600081511415612a9a576040517f08c379a0000000000000000000000000000000000000000000000000000000008152600401612a9190613b28565b60405180910390fd5b805181602001fd5b63150b7a0260e01b7bffffffffffffffffffffffffffffffffffffffffffffffffffffffff1916817bffffffffffffffffffffffffffffffffffffffffffffffffffffffff191614915050612af7565b600190505b949350505050565b612b19828260405180602001604052806000815250612ebd565b5050565b505050565b6008805490506009600083815260200190815260200160002081905550600881908060018154018082558091505060019003906000526020600020016000909190919091505550565b60006001612b788461112b565b612b829190613fa3565b9050600060076000848152602001908152602001600020549050818114612c67576000600660008673ffffffffffffffffffffffffffffffffffffffff1673ffffffffffffffffffffffffffffffffffffffff168152602001908152602001600020600084815260200190815260200160002054905080600660008773ffffffffffffffffffffffffffffffffffffffff1673ffffffffffffffffffffffffffffffffffffffff168152602001908152602001600020600084815260200190815260200160002081905550816007600083815260200190815260200160002081905550505b6007600084815260200190815260200160002060009055600660008573ffffffffffffffffffffffffffffffffffffffff1673ffffffffffffffffffffffffffffffffffffffff16815260200190815260200160002060008381526020019081526020016000206000905550505050565b60006001600880549050612cec9190613fa3565b9050600060096000848152602001908152602001600020549050600060088381548110612d42577f4e487b7100000000000000000000000000000000000000000000000000000000600052603260045260246000fd5b906000526020600020015490508060088381548110612d8a577f4e487b7100000000000000000000000000000000000000000000000000000000600052603260045260246000fd5b906000526020600020018190555081600960008381526020019081526020016000208190555060096000858152602001908152602001600020600090556008805480612dff577f4e487b7100000000000000000000000000000000000000000000000000000000600052603160045260246000fd5b6001900381819060005260206000200160009055905550505050565b6000612e268361112b565b905081600660008573ffffffffffffffffffffffffffffffffffffffff1673ffffffffffffffffffffffffffffffffffffffff168152602001908152602001600020600083815260200190815260200160002081905550806007600084815260200190815260200160002081905550505050565b6000808273ffffffffffffffffffffffffffffffffffffffff163b119050919050565b612ec78383612f18565b612ed46000848484612968565b612f13576040517f08c379a0000000000000000000000000000000000000000000000000000000008152600401612f0a90613b28565b60405180910390fd5b505050565b600073ffffffffffffffffffffffffffffffffffffffff168273ffffffffffffffffffffffffffffffffffffffff161415612f88576040517f08c379a0000000000000000000000000000000000000000000000000000000008152600401612f7f90613cc8565b60405180910390fd5b612f9181611e5a565b15612fd1576040517f08c379a0000000000000000000000000000000000000000000000000000000008152600401612fc890613b88565b60405180910390fd5b612fdd6000838361284f565b6001600360008473ffffffffffffffffffffffffffffffffffffffff1673ffffffffffffffffffffffffffffffffffffffff168152602001908152602001600020600082825461302d9190613ec2565b92505081905550816002600083815260200190815260200160002060006101000a81548173ffffffffffffffffffffffffffffffffffffffff021916908373ffffffffffffffffffffffffffffffffffffffff160217905550808273ffffffffffffffffffffffffffffffffffffffff16600073ffffffffffffffffffffffffffffffffffffffff167fddf252ad1be2c89b69c2b068fc378daa952ba7f163c4a11628f55a4df523b3ef60405160405180910390a46130ee60008383612963565b5050565b8280546130fe9061408d565b90600052602060002090601f0160209004810192826131205760008555613167565b82601f1061313957805160ff1916838001178555613167565b82800160010185558215613167579182015b8281111561316657825182559160200191906001019061314b565b5b5090506131749190613205565b5090565b8280546131849061408d565b90600052602060002090601f0160209004810192826131a657600085556131f4565b82601f106131b757805485556131f4565b828001600101855582156131f457600052602060002091601f016020900482015b828111156131f35782548255916001019190600101906131d8565b5b5090506132019190613205565b5090565b5b8082111561321e576000816000905550600101613206565b5090565b600061323561323084613e08565b613de3565b90508281526020810184848401111561324d57600080fd5b61325884828561404b565b509392505050565b600061327361326e84613e39565b613de3565b90508281526020810184848401111561328b57600080fd5b61329684828561404b565b509392505050565b6000813590506132ad816147f7565b92915050565b6000813590506132c28161480e565b92915050565b6000813590506132d781614825565b92915050565b6000815190506132ec81614825565b92915050565b600082601f83011261330357600080fd5b8135613313848260208601613222565b91505092915050565b600082601f83011261332d57600080fd5b813561333d848260208601613260565b91505092915050565b6000813590506133558161483c565b92915050565b60006020828403121561336d57600080fd5b600061337b8482850161329e565b91505092915050565b6000806040838503121561339757600080fd5b60006133a58582860161329e565b92505060206133b68582860161329e565b9150509250929050565b6000806000606084860312156133d557600080fd5b60006133e38682870161329e565b93505060206133f48682870161329e565b925050604061340586828701613346565b9150509250925092565b6000806000806080858703121561342557600080fd5b60006134338782880161329e565b94505060206134448782880161329e565b935050604061345587828801613346565b925050606085013567ffffffffffffffff81111561347257600080fd5b61347e878288016132f2565b91505092959194509250565b6000806040838503121561349d57600080fd5b60006134ab8582860161329e565b92505060206134bc858286016132b3565b9150509250929050565b600080604083850312156134d957600080fd5b60006134e78582860161329e565b92505060206134f885828601613346565b9150509250929050565b60006020828403121561351457600080fd5b6000613522848285016132c8565b91505092915050565b60006020828403121561353d57600080fd5b600061354b848285016132dd565b91505092915050565b60006020828403121561356657600080fd5b600082013567ffffffffffffffff81111561358057600080fd5b61358c8482850161331c565b91505092915050565b6000602082840312156135a757600080fd5b60006135b584828501613346565b91505092915050565b6135c781613fd7565b82525050565b6135d681613fe9565b82525050565b60006135e782613e7f565b6135f18185613e95565b935061360181856020860161405a565b61360a81614226565b840191505092915050565b600061362082613e8a565b61362a8185613ea6565b935061363a81856020860161405a565b61364381614226565b840191505092915050565b600061365982613e8a565b6136638185613eb7565b935061367381856020860161405a565b80840191505092915050565b6000815461368c8161408d565b6136968186613eb7565b945060018216600081146136b157600181146136c2576136f5565b60ff198316865281860193506136f5565b6136cb85613e6a565b60005b838110156136ed578154818901526001820191506020810190506136ce565b838801955050505b50505092915050565b600061370b602b83613ea6565b915061371682614237565b604082019050919050565b600061372e603283613ea6565b915061373982614286565b604082019050919050565b6000613751602683613ea6565b915061375c826142d5565b604082019050919050565b6000613774602583613ea6565b915061377f82614324565b604082019050919050565b6000613797601c83613ea6565b91506137a282614373565b602082019050919050565b60006137ba602483613ea6565b91506137c58261439c565b604082019050919050565b60006137dd601983613ea6565b91506137e8826143eb565b602082019050919050565b6000613800602183613ea6565b915061380b82614414565b604082019050919050565b6000613823602c83613ea6565b915061382e82614463565b604082019050919050565b6000613846602083613ea6565b9150613851826144b2565b602082019050919050565b6000613869601d83613ea6565b9150613874826144db565b602082019050919050565b600061388c603883613ea6565b915061389782614504565b604082019050919050565b60006138af602a83613ea6565b91506138ba82614553565b604082019050919050565b60006138d2602983613ea6565b91506138dd826145a2565b604082019050919050565b60006138f5602083613ea6565b9150613900826145f1565b602082019050919050565b6000613918602c83613ea6565b91506139238261461a565b604082019050919050565b600061393b602083613ea6565b915061394682614669565b602082019050919050565b600061395e602f83613ea6565b915061396982614692565b604082019050919050565b6000613981602183613ea6565b915061398c826146e1565b604082019050919050565b60006139a4603183613ea6565b91506139af82614730565b604082019050919050565b60006139c7602c83613ea6565b91506139d28261477f565b604082019050919050565b60006139ea601583613ea6565b91506139f5826147ce565b602082019050919050565b613a0981614041565b82525050565b6000613a1b828561364e565b9150613a27828461364e565b91508190509392505050565b6000613a3f828661364e565b9150613a4b828561364e565b9150613a57828461367f565b9150819050949350505050565b6000602082019050613a7960008301846135be565b92915050565b6000608082019050613a9460008301876135be565b613aa160208301866135be565b613aae6040830185613a00565b8181036060830152613ac081846135dc565b905095945050505050565b6000602082019050613ae060008301846135cd565b92915050565b60006020820190508181036000830152613b008184613615565b905092915050565b60006020820190508181036000830152613b21816136fe565b9050919050565b60006020820190508181036000830152613b4181613721565b9050919050565b60006020820190508181036000830152613b6181613744565b9050919050565b60006020820190508181036000830152613b8181613767565b9050919050565b60006020820190508181036000830152613ba18161378a565b9050919050565b60006020820190508181036000830152613bc1816137ad565b9050919050565b60006020820190508181036000830152613be1816137d0565b9050919050565b60006020820190508181036000830152613c01816137f3565b9050919050565b60006020820190508181036000830152613c2181613816565b9050919050565b60006020820190508181036000830152613c4181613839565b9050919050565b60006020820190508181036000830152613c618161385c565b9050919050565b60006020820190508181036000830152613c818161387f565b9050919050565b60006020820190508181036000830152613ca1816138a2565b9050919050565b60006020820190508181036000830152613cc1816138c5565b9050919050565b60006020820190508181036000830152613ce1816138e8565b9050919050565b60006020820190508181036000830152613d018161390b565b9050919050565b60006020820190508181036000830152613d218161392e565b9050919050565b60006020820190508181036000830152613d4181613951565b9050919050565b60006020820190508181036000830152613d6181613974565b9050919050565b60006020820190508181036000830152613d8181613997565b9050919050565b60006020820190508181036000830152613da1816139ba565b9050919050565b60006020820190508181036000830152613dc1816139dd565b9050919050565b6000602082019050613ddd6000830184613a00565b92915050565b6000613ded613dfe565b9050613df982826140bf565b919050565b6000604051905090565b600067ffffffffffffffff821115613e2357613e226141f7565b5b613e2c82614226565b9050602081019050919050565b600067ffffffffffffffff821115613e5457613e536141f7565b5b613e5d82614226565b9050602081019050919050565b60008190508160005260206000209050919050565b600081519050919050565b600081519050919050565b600082825260208201905092915050565b600082825260208201905092915050565b600081905092915050565b6000613ecd82614041565b9150613ed883614041565b9250827fffffffffffffffffffffffffffffffffffffffffffffffffffffffffffffffff03821115613f0d57613f0c61416a565b5b828201905092915050565b6000613f2382614041565b9150613f2e83614041565b925082613f3e57613f3d614199565b5b828204905092915050565b6000613f5482614041565b9150613f5f83614041565b9250817fffffffffffffffffffffffffffffffffffffffffffffffffffffffffffffffff0483118215151615613f9857613f9761416a565b5b828202905092915050565b6000613fae82614041565b9150613fb983614041565b925082821015613fcc57613fcb61416a565b5b828203905092915050565b6000613fe282614021565b9050919050565b60008115159050919050565b60007fffffffff0000000000000000000000000000000000000000000000000000000082169050919050565b600073ffffffffffffffffffffffffffffffffffffffff82169050919050565b6000819050919050565b82818337600083830152505050565b60005b8381101561407857808201518184015260208101905061405d565b83811115614087576000848401525b50505050565b600060028204905060018216806140a557607f821691505b602082108114156140b9576140b86141c8565b5b50919050565b6140c882614226565b810181811067ffffffffffffffff821117156140e7576140e66141f7565b5b80604052505050565b60006140fb82614041565b91507fffffffffffffffffffffffffffffffffffffffffffffffffffffffffffffffff82141561412e5761412d61416a565b5b600182019050919050565b600061414482614041565b915061414f83614041565b92508261415f5761415e614199565b5b828206905092915050565b7f4e487b7100000000000000000000000000000000000000000000000000000000600052601160045260246000fd5b7f4e487b7100000000000000000000000000000000000000000000000000000000600052601260045260246000fd5b7f4e487b7100000000000000000000000000000000000000000000000000000000600052602260045260246000fd5b7f4e487b7100000000000000000000000000000000000000000000000000000000600052604160045260246000fd5b6000601f19601f8301169050919050565b7f455243373231456e756d657261626c653a206f776e657220696e646578206f7560008201527f74206f6620626f756e6473000000000000000000000000000000000000000000602082015250565b7f4552433732313a207472616e7366657220746f206e6f6e20455243373231526560008201527f63656976657220696d706c656d656e7465720000000000000000000000000000602082015250565b7f4f776e61626c653a206e6577206f776e657220697320746865207a65726f206160008201527f6464726573730000000000000000000000000000000000000000000000000000602082015250565b7f4552433732313a207472616e736665722066726f6d20696e636f72726563742060008201527f6f776e6572000000000000000000000000000000000000000000000000000000602082015250565b7f4552433732313a20746f6b656e20616c7265616479206d696e74656400000000600082015250565b7f4552433732313a207472616e7366657220746f20746865207a65726f2061646460008201527f7265737300000000000000000000000000000000000000000000000000000000602082015250565b7f4552433732313a20617070726f766520746f2063616c6c657200000000000000600082015250565b7f53616c65206d7573742062652061637469766520746f206d696e7420626c696e60008201527f6400000000000000000000000000000000000000000000000000000000000000602082015250565b7f4552433732313a206f70657261746f7220717565727920666f72206e6f6e657860008201527f697374656e7420746f6b656e0000000000000000000000000000000000000000602082015250565b7f43616e206f6e6c79206d696e74203120746f6b656e7320617420612074696d65600082015250565b7f53616c6520776f756c6420657863656564206d61782062616c616e6365000000600082015250565b7f4552433732313a20617070726f76652063616c6c6572206973206e6f74206f7760008201527f6e6572206e6f7220617070726f76656420666f7220616c6c0000000000000000602082015250565b7f4552433732313a2062616c616e636520717565727920666f7220746865207a6560008201527f726f206164647265737300000000000000000000000000000000000000000000602082015250565b7f4552433732313a206f776e657220717565727920666f72206e6f6e657869737460008201527f656e7420746f6b656e0000000000000000000000000000000000000000000000602082015250565b7f4552433732313a206d696e7420746f20746865207a65726f2061646472657373600082015250565b7f4552433732313a20617070726f76656420717565727920666f72206e6f6e657860008201527f697374656e7420746f6b656e0000000000000000000000000000000000000000602082015250565b7f4f776e61626c653a2063616c6c6572206973206e6f7420746865206f776e6572600082015250565b7f4552433732314d657461646174613a2055524920717565727920666f72206e6f60008201527f6e6578697374656e7420746f6b656e0000000000000000000000000000000000602082015250565b7f4552433732313a20617070726f76616c20746f2063757272656e74206f776e6560008201527f7200000000000000000000000000000000000000000000000000000000000000602082015250565b7f4552433732313a207472616e736665722063616c6c6572206973206e6f74206f60008201527f776e6572206e6f7220617070726f766564000000000000000000000000000000602082015250565b7f455243373231456e756d657261626c653a20676c6f62616c20696e646578206f60008201527f7574206f6620626f756e64730000000000000000000000000000000000000000602082015250565b7f4e6f7420656e6f7567682065746865722073656e740000000000000000000000600082015250565b61480081613fd7565b811461480b57600080fd5b50565b61481781613fe9565b811461482257600080fd5b50565b61482e81613ff5565b811461483957600080fd5b50565b61484581614041565b811461485057600080fd5b5056fea26469706673582212208fe84a570fad5666aa474cc2f9a72bf63e2825a584eb0d7114f5a04757e2294d64736f6c63430008010033",
  "immutableReferences": {},
  "source": "// SPDX-License-Identifier: MIT\r\npragma solidity ^0.8.1;\r\nimport \"@openzeppelin/contracts/token/ERC721/extensions/ERC721Enumerable.sol\";\r\nimport \"@openzeppelin/contracts/access/Ownable.sol\";\r\nimport \"@openzeppelin/contracts/utils/Strings.sol\";\r\ncontract  BlindBox is ERC721Enumerable,Ownable {\r\n    using Strings for uint256;\r\n    string [] private indexUrlList;\r\n     mapping(uint256=>string) public _tokenURIs;\r\n    //nft\r\n    bool public _isActiveSale =false;\r\n    //\r\n    bool public _revealed = false;\r\n    \r\n    //\r\n     uint256 public constant MAX_SUPPLY = 1000;\r\n    //\r\n    uint256 public mintPrice = 0.3 ether; \r\n    //\r\n    uint256 public maxBalance = 1;\r\n    //\r\n    uint256 public maxMint = 1;\r\n    string baseURI;\r\n    string public notRevealedURI;\r\n    string public baseExtension = \".json\";\r\n    \r\n    constructor(string memory name_, string memory symbol_,string memory inintBaseUrl,string memory notRevealdUrl_) \r\n    ERC721(name_,symbol_){\r\n    setBaseURI(inintBaseUrl);\r\n    setNotRevealURI(notRevealdUrl_);\r\n    \r\n    }\r\n    function setBaseURI(string memory _newURI) public onlyOwner {\r\n                baseURI = _newURI;\r\n    }\r\n    function setNotRevealURI(string memory notRevealURI_) public onlyOwner{\r\n                notRevealedURI = notRevealURI_;\r\n    }\r\n    function setMintPrice(uint256  mintprice_) public onlyOwner{\r\n                mintPrice = mintprice_;\r\n    }\r\n    function _baseURI() internal view virtual override returns (string memory){\r\n        return baseURI;\r\n    }\r\n    function flipSaleActive() public onlyOwner {\r\n        _isActiveSale = !_isActiveSale;\r\n    }\r\n\r\n    function flipReveal() public onlyOwner {\r\n        _revealed = !_revealed;\r\n    }\r\n    function tokenURI(uint256 tokenId) public view virtual override returns (string memory) {\r\n\r\n       require(_exists(tokenId), \"ERC721Metadata: URI query for nonexistent token\");\r\n        if(!_revealed){\r\n            return notRevealedURI;\r\n        }\r\n        string memory _tokenURI = _tokenURIs[tokenId];\r\n        string memory base = _baseURI();\r\n        //\r\n        if(bytes(_tokenURI).length == 0){\r\n            _tokenURI = notRevealedURI;\r\n        }\r\n        // If there is no base URI, return the token URI.\r\n        if (bytes(base).length == 0) {\r\n            return _tokenURI;\r\n        }\r\n        // If both are set, concatenate the baseURI and tokenURI (via abi.encodePacked).\r\n        if (bytes(_tokenURI).length > 0) {\r\n            return string(abi.encodePacked(base, _tokenURI));\r\n        }\r\n        // If there is a baseURI but no tokenURI, concatenate the tokenID to the baseURI.\r\n        return\r\n            string(abi.encodePacked(base, tokenId.toString(), baseExtension));\r\n    }\r\n    function mintBlind(uint256  tokenQuantity) public payable{\r\n       require(totalSupply()+ tokenQuantity <= MAX_SUPPLY);\r\n       require(_isActiveSale, \"Sale must be active to mint blind\");\r\n        require(\r\n            balanceOf(msg.sender) + tokenQuantity <= maxBalance,\r\n            \"Sale would exceed max balance\"\r\n        );\r\n        require(\r\n            tokenQuantity * mintPrice <= msg.value,\r\n            \"Not enough ether sent\"\r\n        );\r\n        require(tokenQuantity <= maxMint, \"Can only mint 1 tokens at a time\");\r\n\r\n        _mintNicMeta(tokenQuantity);\r\n\r\n    }\r\n     function _mintNicMeta(uint256 tokenQuantity) internal {\r\n        for (uint256 i = 0; i < tokenQuantity; i++) {\r\n            uint256 mintIndex = totalSupply();\r\n            if (totalSupply() < MAX_SUPPLY) {\r\n                _safeMint(msg.sender, mintIndex);\r\n            }\r\n        }\r\n    }\r\n    function openBox(uint256 tokenId) public{\r\n        require(_exists(tokenId), \"ERC721Metadata: URI query for nonexistent token\");\r\n        require(_revealed, \"Sale must be active to mint blind\");\r\n        uint256 index = tokenId % indexUrlList.length;\r\n        _tokenURIs[tokenId] = indexUrlList[index];\r\n    }\r\n    function addUrl(string memory url) public onlyOwner{\r\n        indexUrlList.push(url);\r\n    }\r\n    function withdraw(address to) public onlyOwner {\r\n        uint256 balance = address(this).balance;\r\n        payable(to).transfer(balance);\r\n    }\r\n}",
  "sourcePath": "D:/project/solidity/nft/contracts/BlindBox.sol",
  "compiler": {
    "name": "solc",
    "version": "0.8.1+commit.df193b15.Emscripten.clang"
  },
  "schemaVersion": "3.4.1",
  "updatedAt": "2022-03-10T16:21:04.228Z",
  "networkType": "ethereum",
  "devdoc": {
    "kind": "dev",
    "methods": {
      "approve(address,uint256)": {
        "details": "See {IERC721-approve}."
      },
      "balanceOf(address)": {
        "details": "See {IERC721-balanceOf}."
      },
      "getApproved(uint256)": {
        "details": "See {IERC721-getApproved}."
      },
      "isApprovedForAll(address,address)": {
        "details": "See {IERC721-isApprovedForAll}."
      },
      "name()": {
        "details": "See {IERC721Metadata-name}."
      },
      "owner()": {
        "details": "Returns the address of the current owner."
      },
      "ownerOf(uint256)": {
        "details": "See {IERC721-ownerOf}."
      },
      "renounceOwnership()": {
        "details": "Leaves the contract without owner. It will not be possible to call `onlyOwner` functions anymore. Can only be called by the current owner. NOTE: Renouncing ownership will leave the contract without an owner, thereby removing any functionality that is only available to the owner."
      },
      "safeTransferFrom(address,address,uint256)": {
        "details": "See {IERC721-safeTransferFrom}."
      },
      "safeTransferFrom(address,address,uint256,bytes)": {
        "details": "See {IERC721-safeTransferFrom}."
      },
      "setApprovalForAll(address,bool)": {
        "details": "See {IERC721-setApprovalForAll}."
      },
      "supportsInterface(bytes4)": {
        "details": "See {IERC165-supportsInterface}."
      },
      "symbol()": {
        "details": "See {IERC721Metadata-symbol}."
      },
      "tokenByIndex(uint256)": {
        "details": "See {IERC721Enumerable-tokenByIndex}."
      },
      "tokenOfOwnerByIndex(address,uint256)": {
        "details": "See {IERC721Enumerable-tokenOfOwnerByIndex}."
      },
      "tokenURI(uint256)": {
        "details": "See {IERC721Metadata-tokenURI}."
      },
      "totalSupply()": {
        "details": "See {IERC721Enumerable-totalSupply}."
      },
      "transferFrom(address,address,uint256)": {
        "details": "See {IERC721-transferFrom}."
      },
      "transferOwnership(address)": {
        "details": "Transfers ownership of the contract to a new account (`newOwner`). Can only be called by the current owner."
      }
    },
    "version": 1
  },
  "userdoc": {
    "kind": "user",
    "methods": {},
    "version": 1
  }
}